:100000000C9404040C944B040C944B040C944B047B
:100010000C944B040C944B040C944B040C944B0424
:100020000C944B040C944B040C9460100C941C1016
:100030000C94E51A0C944B040C944B040C944B0454
:100040000C944B040C944B040C944B040C944B04F4
:100050000C944B040C9439110C944B040C944B04E9
:100060000C944B040C944B040C944B040C944B04D4
:100070000C944B040C944B040C944B040C944B04C4
:100080000C944B040C944B040C944B040C944B04B4
:100090000C944B040C944B040C944B040C944B04A4
:1000A0000C944B040C944B040C944B040000000083
:1000B0000000000000000000000000000000000040
:1000C0000000000000000000000000000000000030
:1000D0007E0F00D4FFFFFFC7000000780000000083
:1000E000000000002A2B2800000000000000000093
:1000F0000000000000000029000000002C1E342039
:10010000212224342627252E362D3738271E1F205E
:100110002122232425263333362E37381F040506A3
:100120000708090A0B0C0D0E0F10111213141516E7
:100130001718191A1B1C1D2F3130232D35040506E5
:100140000708090A0B0C0D0E0F10111213141516C7
:100150001718191A1B1C1D2F3130354C303000A8D0
:10016000000000BC00BB00000053005400550056C6
:100170000000005F0060006100000057005C005D4F
:10018000005E000000000059005A005B00000028DB
:10019000000000000063000000620000DA0281FF3E
:1001A000D9F1DB20A4A62EAF00A0C000A1C800AEEC
:1001B000D580A81FD300408D1420004F46460A006A
:1001C0004F4E0A004E554D3A20002D2D2D2D2D0A53
:1001D00000505543410A5041440A0000AF00AE05AB
:1001E000010980A101850319012AB700150126B76D
:1001F00000950175108100C0050C0901A10185045D
:1002000019012AA002150126A0029501751081008E
:10021000C005010906A101050719E029E715002518
:10022000019508750181029501750881010507197D
:100230000029FF150026FF009506750881000508B6
:100240001901290595057501910295017503910123
:10025000C009023B00020100A0FA090400000103EA
:10026000010100092111010001224000070581035D
:1002700008000A090401000103000000092111011E
:1002800000012232000705820320000A1201000249
:1002900000000008464602000100010200010A03B6
:1002A00050007500630061000000180346006F00F5
:1002B0006F007400460069006E0067006500720000
:1002C000730000000403090407087F0807003E5B71
:1002D0004F5B3E003E6B4F6B3E001C3E7C3E1C0065
:1002E000183C7E3C18001C577D571C001C5E7F5E2E
:1002F0001C0000183C180000FFE7C3E7FF000018CF
:1003000024180000FFE7DBE7FF0030483A060E0044
:10031000262979292600407F05050700407F05250D
:100320003F005A3CE73C5A007F3E1C1C0800081C5A
:100330001C3E7F0014227F2214005F5F005F5F007D
:1003400006097F017F00006689956A006060606031
:10035000600094A2FFA2940008047E04080010200C
:100360007E20100008082A1C0800081C2A08080023
:100370001E10101010000C1E0C1E0C0030383E38E1
:100380003000060E3E0E06000000000000000000D7
:100390005F000000000700070000147F147F1400B6
:1003A000242A7F2A1200231308646200364956204B
:1003B0005000000807030000001C2241000000411B
:1003C000221C00002A1C7F1C2A0008083E08080086
:1003D0000080703000000808080808000000606015
:1003E00000002010080402003E5149453E00004232
:1003F0007F4000007249494946002141494D330080
:100400001814127F10002745454539003C4A4949D8
:100410003100412111090700364949493600464952
:1004200049291E00000014000000004034000000B4
:100430000008142241001414141414000041221462
:1004400008000201590906003E415D594E007C1228
:1004500011127C007F49494936003E41414122004A
:100460007F4141413E007F49494941007F090909D7
:1004700001003E41415173007F0808087F000041A0
:100480007F4100002040413F01007F0814224100CD
:100490007F40404040007F021C027F007F04081024
:1004A0007F003E4141413E007F09090906003E416F
:1004B00051215E007F091929460026494949320029
:1004C00003017F0103003F4040403F001F204020C8
:1004D0001F003F4038403F006314081463000304CA
:1004E000780403006159494D4300007F41414100B8
:1004F000020408102000004141417F000402010273
:100500000400404040404000000307080000205421
:10051000547840007F28444438003844444428003C
:10052000384444287F0038545454180000087E0989
:10053000020018A4A49C78007F08040478000044FA
:100540007D4000002040403D00007F102844000016
:1005500000417F4000007C04780478007C0804049B
:100560007800384444443800FC1824241800182427
:100570002418FC007C080404080048545454240047
:1005800004043F4424003C4040207C001C204020C8
:100590001C003C4030403C004428102844004C9053
:1005A00090907C004464544C4400000836410000A4
:1005B000000077000000004136080000020102043C
:1005C00002003C2623263C000000000000004040C2
:1005D00040F0F8F8FF38FFF8F83FF8F8FF38FFF878
:1005E000F8F040404000000000000080C0C0C08023
:1005F0000000C0C08000000080C0C000C0C000007B
:1006000080C0C00000000000C0C0C0C0C000C0C0AA
:1006100000000000000000000000000000000000DA
:1006200000000000000000000000000000000000CA
:1006300000000000000000000000000000000000BA
:1006400000000000000000C0F0F8FC3E1E060100A3
:1006500000007F4141417F007F4141417F00008098
:10066000C0E07E5B4F5BFEC00000C000DCD7DEDE7A
:10067000DED7DC00C0000000000000000000000029
:1006800000000000000000000000000000004949D8
:1006900049FFFFFFFFE0DFBFBF00BFBFDFE0FFFF9D
:1006A000FFFF49494900000000001F3F6060E0BFB4
:1006B0001F007F7F071E381E077F7F007F7F0E1F72
:1006C0003B716000000000007F7F0C0C0C007E7E00
:1006D000007F7E0303007F7E03037E7E03037F7E15
:1006E000000F3E703C063C703E0F00327B49493F94
:1006F0007E007F7E0303001E3F69696F26000000B5
:1007000000000000000000030F1F3F3C78706000F5
:1007100000007F4141417F007F4141417F00307BAC
:100720007F7830202030787F3B0003000F7F0F0F51
:100730000F7F0F0003000000000000000000000019
:1007400000000000000000000000000000000101A7
:1007500001070F0F7F0F7F0F0F7E0F0F7F0F7F0F90
:100760000F0701010100000000000000000000016F
:100770000100000000000000000000000000000078
:100780000000000000000000000000000000000069
:100790000000000000000000000000000000000059
:1007A0000000000000000000000000000000000049
:1007B0000000000000000000000000000000000039
:1007C0000000000000000000000000000000000029
:1007D0000000000000000000000000000000000019
:1007E0000000000000000000000000000000000009
:1007F00000000000000000000000000000000000F9
:10080000000000000000000011241FBECFEFDAE05E
:10081000DEBFCDBF04B603FE27C080914A08909189
:100820004B08A0914C08B0914D088730904BA740E1
:10083000B04BD1F410924A0810924B0810924C0819
:1008400010924D0814BE84B7877F84BF0FB6F8940A
:10085000A89580916000886180936000109260008C
:100860000FBEE0E0F8E3099511E0A0E0B1E0E8E8B0
:10087000F1E402C005900D92AA36B107D9F728E03D
:10088000AAE6B1E001C01D92AA34B207E1F70E94C6
:100890000C1B0C949E200C940000E8EDF0E080818D
:1008A0008E7F80831092E2001092DA001092E100B5
:1008B000A0EEB0E08C9181608C9380818F778083F3
:1008C00019BCA7EDB0E08C918E7F8C9380818F7ED8
:1008D00080831092250608952091E4003091E50070
:1008E00095E6A9012091EC00822F817020FF06C0BF
:1008F0008091E80080FF06C080E008952091E80024
:1009000022FD1AC080913206882389F0853089F053
:100910008091EB0085FD0FC02091E4003091E5004F
:1009200042175307F9F29150E1F684E0089582E00E
:10093000089583E0089581E00895EF92FF920F9368
:100940001F93CF937C018B010E946C04C82F8111EF
:1009500017C08091E80085FD0BC08091E8008E777C
:100960008093E8000E946C04882399F3C82F08C084
:10097000F70181917F018093F1000150110949F73E
:100980008C2FCF911F910F91FF90EF900895809140
:10099000340687FF13C08091E80082FF06C0809173
:1009A000E8008B778093E80004C0809132068111C3
:1009B000F2CF0895809132068823D9F38091E80020
:1009C00080FFF8CF8091E8008E77ECCF982F90933E
:1009D000E900242F762F50E0891731F07091EC0058
:1009E0002091ED005091F00021FD07C09F5F9730EE
:1009F00071F78093E90081E008953091EB003E7F2C
:100A00003093EB003091ED003D7F3093ED0030915D
:100A1000EB0031603093EB007093EC002093ED001D
:100A20005093F0002091EE0027FDE0CF80E0089584
:100A3000CF92DF92EF92FF920F931F93CF93DF93AA
:100A4000C8EDD0E088818F7E8883E7EDF0E080817B
:100A50008160808384E082BF81E080932506888165
:100A60008E7F888302EE10E0F80110821092DA0087
:100A700081EEC82ED12CF601108288818F77888371
:100A800088818068888388818F7D888319BC1092D3
:100A9000320610923306109231061092300690EE14
:100AA000E92EF12CF70180818B7F80838881816022
:100AB000888342E060E080E00E94E604F6018081E5
:100AC0008E7F8083F801808181608083808188604F
:100AD0008083F70180818E7F808388818061888315
:100AE000DF91CF911F910F91FF90EF90DF90CF900A
:100AF0000895FC0180913A0690913B06861797076E
:100B0000A0F06115710529F49091E8009E7790930B
:100B1000E80090E06115710551F4911108C08091D1
:100B2000E80082FF34C080E00895BC01F2CF8091DC
:100B300032068823C1F18530C1F18091E80083FD40
:100B400030C08091E80082FDEACF8091E80080FF0C
:100B5000E1CF8091F3002091F200382F61157105EB
:100B600019F02830310558F091E02830310509F0AE
:100B700090E02091E8002E772093E800CBCF819180
:100B80008093F100615071092F5F3F4FE7CF809153
:100B90003206882341F0853041F08091E80083FFE0
:100BA000BECF81E0089582E0089583E0089508951E
:100BB000089580912706089587E797E790930108A5
:100BC0008093000888E19AE00FB6F894A895809386
:100BD00060000FBE90936000FFCF2FB7F894609134
:100BE0001E0670911F0680912006909121062FBF4E
:100BF000089520911B0630911C062817390771F0C3
:100C000090931C0680931B06E0911906F0911A063A
:100C1000309721F00084F185E02D0994089520910A
:100C20001706309118062817390771F090931806A7
:100C300080931706E0911906F0911A06309721F07B
:100C40000680F781E02D09940895E0911906F0914E
:100C50001A06309721F00190F081E02D099480E090
:100C6000089530913F068317A0F590E0262F269532
:100C700026952695239F800D911D1124811522E034
:100C800092073CF5FC01EE5BF94F5081677021E063
:100C900030E001C0220F6A95EAF74423D9F0252BF2
:100CA0002517B9F0208325E0969587952A95E1F7D9
:100CB00021E030E002C0220F331F8A95E2F78091D5
:100CC000400690914106822B932B9093410680938E
:100CD0004006089520952523E3CF80E00895F894F9
:100CE000E82FE295EF70F0E031A1282F2F7081E01E
:100CF00090E001C0880F2A95EAF7982F90959323EA
:100D000091A392A1892B82A3789408959091D10107
:100D100092FF06C0282F28712830F9F4877F84605D
:100D200093FF06C0282F28712831F1F4877E846153
:100D30002091D20120FF06C0382F38713830D9F405
:100D4000877F816021FF06C0282F28712831D1F4C8
:100D5000877E816194FD877E0895282F2471243039
:100D6000F9F68B7F8860DCCF282F2471243101F7BE
:100D70008B7E8861DDCF382F3171313019F78E7F4E
:100D80008860E0CF282F2171213121F78E7E886184
:100D9000E1CFCF93DF93EC0182389105A9F1D8F52B
:100DA0008133910509F496C048F58932910509F41B
:100DB0008AC08A9709F495C0C11522E5D20708F0C8
:100DC000B6C0C11531E5D30708F026C1C83ED1052C
:100DD00008F09CC0C03ED10560F5C83AD10508F0C6
:100DE00087C0C53AD10508F0EFC0C130D10509F17F
:100DF0002097F9F0C430D105E0F440C08533910567
:100E000009F45AC0C997C1F68091D101837089F065
:100E1000C0EED0E00EC0833E910599F170F4803EA3
:100E2000910501F1823E910539F68091D10182FD53
:100E300021C0CE01DF91CF910895863E910561F1E9
:100E4000873E910571F1843E910509F0B5CF8091FF
:100E5000D20181FFEECF8091D101C7EED0E084FDB9
:100E60000DC0E7CF8091D10180FD07C19091D201E3
:100E700090FFDFCFC3EED0E084FFDBCFD0E0C0E057
:100E8000D8CF8091D10182FDFBC09091D20190FD1D
:100E9000BFCF84FFCECFF2CF8091D10183FDDDCFD4
:100EA000C8CF8091D10183FDEEC09091D20191FF16
:100EB000F0CFC4EED0E0BDCF8091D10185FFB9CF96
:100EC000C9E2D0E0B6CF8091D10185FFB2CFC5E3B2
:100ED000D0E0AFCF8091D10186FFABCFCAE2D0E0A6
:100EE000A8CF8091D10186FFA4CFC1E3D0E0A1CFEC
:100EF000CF3BD10518F6C85AD0E0CC0FDD1FC75E36
:100F0000DE4F0990D881C02DD46493CFC11540E540
:100F1000D40708F064C0C11580E4D80708F05CC0AD
:100F2000CE019A9581159F4108F483CFA7CFC115B3
:100F300036E5D30718F5C11545E5D40708F084C098
:100F4000C11584E5D80708F07AC09C2F9695969530
:100F50009E0123703327C115D34508F462C0C1E058
:100F6000D0E002C0CC0FDD1F2A95E2F730E2939F5C
:100F7000C0011124C82BD92BDA685BCFC1158AE5D3
:100F8000D80778F4C11599E5D90708F068C0C115EC
:100F900028E5D20708F472CFDC2FCC27C06FD06AC7
:100FA00048CFCE0190568115904208F067CF8D2F23
:100FB0008F710E94860690E0982F882788279F715E
:100FC0009C012C2BE90149C0C55AD0E0CA5EDE4F16
:100FD000C881D0E0D0642DCFDF70D06A2ACFCE0197
:100FE000E4E096958795EA95E1F783702C2F269596
:100FF0002695237040E2249F90011124382B8C2FDA
:101000008370C1E0D0E002C0CC0FDD1F8A95E2F70B
:10101000C22BD32BDC680DCFDC2FCC27C16FD06A5D
:1010200008CFC1E0D0E002C0CC0FDD1F2A95E2F767
:1010300020E2929FC0011124C82BD92BEBCFDC2FCB
:10104000CC27C46FD06AF5CE8C2F0E948606C82F9D
:10105000D0E0DC2FCC27CC27DF71D062EACE8C2FFA
:101060008F700E94860634E0D695C7953A95E1F7D1
:10107000CF709C2FEC01D069DCCEC9E3D0E0D9CE93
:10108000C2EED0E0D6CEC6EED0E0D3CE8091C50180
:1010900081111092C501089580959091C401982303
:1010A0009093C40108958091C4019091C301892B4C
:1010B0009091C201892B80936C019091C501992375
:1010C00091F0892B80936C0120E08EE691E0FC0189
:1010D0003191CF0131112F5FF1E084379F07B9F7CC
:1010E00021110E944608E0911906F0911A063097E6
:1010F00031F00280F381E02D8CE691E009940895AF
:10110000EEE6F1E09191891303C0DF0111971C9283
:1011100091E0E437F907B1F70895AEE6B1E0EFEFFB
:1011200090E02D91821751F0EF3F19F4211101C089
:10113000E92F9F5F9630A9F7EF3F09F408950E2E2F
:10114000000CFF0BE459FE4F828308958091C0018B
:1011500090918F01981301C008958F5F8770FACF27
:10116000AF92BF92CF92DF92EF92FF920F931F93B5
:10117000CF93DF93C090CD01D090CE01E090CF010E
:10118000F090D0014091C6015091C7016091C80113
:101190007091C901C42AD52AE62AF72ACFE1D0E006
:1011A000082F10E025E0929F000D111D11249EE1F3
:1011B000A92EBC2ED701C6010C2E04C0B695A7954A
:1011C000979587950A94D2F780FD0FC0219788F7ED
:1011D000B12C8B2DDF91CF911F910F91FF90EF904C
:1011E000DF90CF90BF90AF900895AC9EF001AD9E80
:1011F000F00D1124E00FF11FEE0FFF1FE15AFE4F1B
:10120000859194910E94C906019701F3E2CFCF9393
:10121000DF93EC010E94B008EC2FF0E095E0D99F3D
:10122000E00DF11D11249EE1899FE00DF11D1124B7
:10123000EE0FFF1FE15AFE4F85919491DF91CF9100
:101240000C94C906E92FEE0FEE0F9E0F890F982F11
:10125000977086958695869525E0829FF0011124EA
:10126000EB58FE4F50E040E080E0219130E0092E45
:1012700002C0369527950A94E2F721703327042E91
:1012800001C0220F0A94EAF7822B4F5F5F4F45306F
:10129000510559F70895E92FEE0FEE0F9E0F890FB4
:1012A000982F977041E001C0440F9A95EAF7869510
:1012B0008695869595E0899FF0011124EB58FE4FA5
:1012C00030E020E070E05191DF011197CB01022E58
:1012D00002C0969587950A94E2F7817081958527DB
:1012E000842385278C932F5F3F4F2530310559F795
:1012F0000895FC01808191810E940709292F2F7098
:1013000092959F7092509E3078F4E92FF0E0E0566D
:10131000FF4D0C944020803F19F020F4883E20F4CB
:1013200081E00895843FE1F380E00895883EC0F3B2
:10133000813FD1F7F5CF822F8695869586950895C2
:1013400090E080E00E940F0690E080E00E94F905A6
:101350001092C3011092C2010C9453086093CD0106
:101360007093CE018093CF019093D0010C94A0098B
:101370000F931F9341E050E060E070E004C0440F21
:10138000551F661F771F8A95D2F7CB01BA0160956A
:101390007095809590950091CD011091CE0120918E
:1013A000CF013091D00160237123822393231F91B9
:1013B0000F910C94AE099091C1018095892380937F
:1013C000C101282F277091F4282F082E000C330B11
:1013D0009217130659F09091D20192FD07C085959E
:1013E000859585950E94B8091092C10108950F93C3
:1013F0001F9341E050E060E070E004C0440F551FCF
:10140000661F771F8A95D2F78091CD019091CE010A
:10141000A091CF01B091D0018A019B01082B192B1B
:101420002A2B3B2BC901B8011F910F910C94AE09D7
:101430006093C6017093C7018093C8019093C9015E
:101440000C94A009882321F00E944C080C945308A6
:101450000895882339F09091C401982B9093C4018A
:101460000C9453080895882309F44BC0823871F412
:101470000E94250681FF45C089E30E948D080E94D5
:10148000530889E30E9480080C945308833859F468
:101490000E94250680FF35C083E50E948D080E94CA
:1014A000530883E5EFCF843859F40E94250682FF64
:1014B00028C087E40E948D080E94530887E4E2CF89
:1014C0009CEF980F913AF0F290E2980F983050F418
:1014D000877091E001C0990F8A95EAF7892F0E94E1
:1014E0004C08D2CF9BE5980F933020F490E080E039
:1014F0000C940F06885A873120F490E080E00C9419
:10150000F90508951092C401EEE6F1E086E0DF01EE
:101510001D928A95E9F70C94A0091F93CF93DF934E
:10152000CDB7DEB7AA970FB6F894DEBF0FBECDBF1A
:1015300084E396E02091F100FC012193CF01F6E0D5
:101540008C339F07B9F780913506833009F470C05A
:10155000B8F4813009F447C0823009F4B1C08091F9
:10156000E80083FF7EC280913406909135069A3060
:1015700008F077C2E92FF0E0E255FF4D0C944020CF
:101580008A3009F48CC08B3009F46FC0893039F788
:1015900080913406813219F780913806909139068E
:1015A0000297E8F68091E800877F8093E8008091B9
:1015B000E80082FF38C09091F3008091F20002971A
:1015C00031F48091F100813011F0863021F4809166
:1015D000F100809327068091E8008B778093E800E4
:1015E0000E94C704BCCF80913406813A09F0B7CF7E
:1015F0008091E800877F8093E80080913806909181
:101600003906892B61F468E088E296E070E00E9478
:1016100079058091E8008B778093E800A0CF60E0A7
:1016200090E080E0F3CF809132068111C0CF97CF58
:1016300080913406813A09F092CF809138069091DA
:101640003906892B09F08BCF8091E800877F809342
:10165000E8008091E80080FFFCCF80911501809325
:10166000F1008091E8008E77B9CF80913406813205
:1016700009F075CF8091380690913906892B09F0D1
:101680006ECF8091E800877F8093E8000E94C704B6
:1016900080913606809315010E94820A60CF809166
:1016A0003406813209F05BCF8091E800877F809318
:1016B000E8000E94C70480913706809326064FCF2A
:1016C00080913406813A09F04ACF8091E800877F03
:1016D0008093E8008091E80080FFFCCF809126068F
:1016E000BECF803899F0823809F0BBC180913806AE
:1016F0008F70873008F0B5C18093E9008091EB00CE
:1017000085FB882780F91092E90006C08091300699
:1017100090913106911182609091E800977F9093AB
:10172000E8008093F1001092F1008091E8008E773C
:1017300094C1882309F482C1823009F092C180915A
:101740003606811185C1809138068F702FEF280FE2
:10175000263008F086C18093E9002091EB0020FF3D
:1017600077C1933031F48091EB0080628093EB007D
:101770006FC19091EB0090619093EB0021E030E01D
:1017800001C0220F8A95EAF72093EA001092EA003E
:101790008091EB008860EACF811163C11091360619
:1017A0001F778091E3008078812B8093E300809104
:1017B000E800877F8093E8000E94C7048091E800DA
:1017C00080FFFCCF8091E30080688093E30082E09B
:1017D000111183E08093320644C18058823008F0B2
:1017E00040C180913606909137068C3D23E09207E8
:1017F000A1F583E08A838AE289834FB7F894DE01FA
:10180000139620E03EE051E2E32FF0E050935700C2
:10181000E49120FF03C0E295EF703F5FEF708E2FE1
:1018200090E0EA30C0F0C7968D939D932F5F2431EE
:1018300059F74FBF8091E800877F8093E8006AE204
:1018400070E0CE0101960E9479058091E8008B77C7
:101850008093E80006C1C096E7CF409138065091CA
:101860003906292F33272330310509F444C078F590
:101870002130310509F46FC08BE390E0E1E5F2E03F
:101880002230310509F0EDC02091E800277F209338
:10189000E80020913A0630913B068217930708F43E
:1018A0009C0140E02115310509F064C0411162C07E
:1018B0008091E80082FDC9CF80913206882329F209
:1018C000853019F28091E80083FFF2CFBECF21323C
:1018D0003105A9F12232310509F0C3C04115510586
:1018E00009F443C04130510509F0BBC082E390E0E8
:1018F000EFEDF1E0C9CF992781309105C1F0009754
:1019000059F0029709F0ADC0EEE9F2E0E4918E2FB4
:1019100090E0EEE9F2E007C0E4ECF2E0E4918E2F13
:1019200090E0E4ECF2E0009709F49BC0ADCFEAEA66
:10193000F2E0E4918E2F90E0EAEAF2E0F4CF411574
:10194000510571F04130510509F08BC089E090E0FC
:10195000ECE7F2E099CF82E190E0ECE8F2E094CF9E
:1019600089E090E0E3E6F2E08FCF80E490E0E1E10F
:10197000F2E08ACF80913206882309F466CF853061
:1019800009F463CF8091E80083FD5FCF8091E80088
:1019900082FD8ECF8091E80080FF84CF9091F3008C
:1019A0008091F2002115310519F08830910550F031
:1019B00041E0089709F040E08091E8008E7780933D
:1019C000E80070CF44914093F100319621503109E5
:1019D0000196E8CF803809F044C08091E800877F05
:1019E0008093E800809133068093F1009ECE8111B0
:1019F00038C0109136061230A0F58091E800877F3C
:101A00008093E800109333060E94C704112311F05D
:101A100084E005C08091E30087FDFACF81E08093E8
:101A2000320642E061EC81E00E94E60442E261ECB1
:101A300082E00E94E6048091320613C0809136064F
:101A4000813079F481E0933009F080E080933106B1
:101A50001092E9008091E800877F8093E8000E945F
:101A6000C7048091E80083FF0AC08091E800877F67
:101A70008093E8008091EB0080628093EB00AA964F
:101A80000FB6F894DEBF0FBECDBFDF91CF911F918F
:101A90000895CF93DF93C0914808D09149088A30C8
:101AA000C1F420913F06CE0182549640622F70E02F
:101AB0000E940C20281B822F66E00E942020C82F45
:101AC000C15018F4DF91CF91089580E20E94490D32
:101AD000F7CF8D30E9F4C254D64020913F06622FF3
:101AE00070E0CE010E940C20281B822F9E01280F3F
:101AF000311D2115324018F080E0D0E0C0E0C80F61
:101B0000D11DCE5BD94FD0934908C0934808DACF96
:101B100096E0FE01A2E4B8E001900D929A95E1F7FB
:101B2000803E08F458C086E0FE0111928A95E9F7DC
:101B3000C0914808D091490846E050E0BE0182E4D7
:101B400098E00E944F209E0122543640892B41F19B
:101B5000C90145E0969587954A95E1F741E050E047
:101B6000BA0102C0660F771F8A95E2F7CB01609138
:101B7000400670914106862B972BB9016B5F7F4F12
:101B8000E5E076956795EA95E1F702C0440F551FA9
:101B90006A95E2F7842B952B90934106809340063B
:101BA0002A5F3F4F40913F06642F70E0C9010E94B9
:101BB0000C20481B463010F4240F311D211572E013
:101BC000370710F030E020E02E5B394F30934908A2
:101BD0002093480877CFF6E08F9FB0011124685317
:101BE0007D4F46E050E0CE010E944620A1CFCF932A
:101BF000DF93EC01FE018491811103C0DF91CF914D
:101C000008950E94490D2196F5CFCF92DF92EF9271
:101C1000FF920F931F93CF93DF936C017B0164E6D8
:101C200070E088E70E940B1FEC0197FD12C010E0E6
:101C300000E0F601E00FF11F849164E670E00E947D
:101C4000851FEC01892B29F40F5F1F4F0E151F050F
:101C500081F70E940820CE01DF91CF911F910F9153
:101C6000FF90EF90DF90CF900895809115069091AE
:101C70001606911103C091E089270895882369F021
:101C800062E070E08DED91E00E94050E892B19F065
:101C90008091150608951092150680911506EBCFD8
:101CA000CF93C0911506809116068823D1F00E942B
:101CB000ED05605A75418F4F9F4F609311067093E9
:101CC00012068093130690931406C11108C062E0B7
:101CD00070E08BED91E00E94050E892B29F0C091F8
:101CE00015068C2FCF91089581E080931506F7CFCC
:101CF0008093220670932406609323068091320617
:101D0000843001F582E08093E9008FEF9091E80044
:101D1000815095FD06C095ED9A95F1F7000081116F
:101D2000F5CF8091E80085FF0DC050E040E063E012
:101D300070E082E296E00E949D048091E8008E7738
:101D40008093E8000895BC0184E00C94780EBC01F7
:101D500083E00C94780ECF93DF93EC0181E08093C5
:101D6000E9008FEF9091E800815095FD06C095ED58
:101D70009A95F1F700008111F5CF8091E80085FF79
:101D800014C050E040E068E070E0CE010E949D0485
:101D90008091E8008E778093E80088E0FE01A8E259
:101DA000B6E001900D928A95E1F7DF91CF91089509
:101DB000CF93C82F882309F488C08238C1F40E94C9
:101DC000250681FD82C089E30E948D080E94530888
:101DD0002FEF81EE94E0215080409040E1F700C069
:101DE000000089E30E948008CF910C945308833847
:101DF000A1F40E94250680FD68C083E50E948D083D
:101E00000E9453082FEF81EE94E0215080409040D3
:101E1000E1F700C0000083E5E5CF8438A1F40E941B
:101E2000250682FD52C087E40E948D080E94530857
:101E30002FEF81EE94E0215080409040E1F700C008
:101E4000000087E4CFCF8CEF8C0F813A68F4EEE688
:101E5000F1E08191C81799F121E0E437F207C9F761
:101E60008C2F0E948D08C0CF80E28C0F883068F4E0
:101E7000C77021E030E001C0220FCA95EAF78091D7
:101E8000C401822B8093C401AFCFEBE5EC0FE330AC
:101E900040F4F0E0EA5EFE4F808190E0CF910C9438
:101EA0000F06C85AC73188F4EC2FF0E0EE0FFF1F81
:101EB000E75EFE4F80819181CF910C94F9058C2FC4
:101EC0000E9480080E945308CBCFCF9108951F93A2
:101ED000CF93DF93182FEB010E94D80E209731F497
:101EE000812FDF91CF911F910C94330A8FE99FE0EE
:101EF0000197F1F700C000002197F0CF70E060E09B
:101F0000893311F460E570E00C94670FCF9384E09F
:101F100090E00E945C20C82F82E290E00E945C204A
:101F2000982F8C2FCF91089569EE7EEF90E080E09E
:101F30000E94882060E082E090E00E946A2060E0D9
:101F400083E090E00E946A201092C6011092C701BF
:101F50001092C8011092C90160E084E090E00E94F4
:101F60006A2060E082E290E00E946A2060E085E002
:101F700090E00E946A2060E086E090E00E946A2083
:101F80006FEF87E090E00E946A2040E050E0BA01E5
:101F900088E090E00E947C2060E08DE090E00E946C
:101FA0006A2040E050E0BA0188E190E00E947C2085
:101FB00060E087E190E00E946A2040E050E0BA01D2
:101FC0008CE190E00E947C2070E060E080E290E094
:101FD0000E94882040E050E0BA0188E190E00E9431
:101FE0007C2040E050E0BA018FE090E00E947C202D
:101FF00040E050E0BA0183E190E00C947C20CF9364
:10200000C091D201C2FB992790F9981799F080FBF3
:10201000C2F9C093D2016091D10184E090E00E94A6
:102020006A206C2F82E290E00E946A2082E0CF91C9
:102030000C94DB09CF9108951F920F920FB60F9267
:1020400011242F933F934F935F936F937F938F93BD
:102050009F93AF93BF93CF93DF93EF93FF93D09171
:10206000E900DF708091EC00C82FC17080FDC0E8EE
:102070001092E9008091F000877F8093F0007894BF
:102080000E948D0A1092E9008091F0008860809390
:10209000F000CD2BCF70C093E900FF91EF91DF915D
:1020A000CF91BF91AF919F918F917F916F915F91F0
:1020B0004F913F912F910F900FBE0F901F90189549
:1020C0001F920F920FB60F9211242F933F934F93AD
:1020D0005F936F937F938F939F93AF93BF93EF9390
:1020E000FF938091E10082FF09C08091E20082FFAE
:1020F00005C08091E1008B7F8093E1008091DA0040
:1021000080FF24C08091D80080FF20C08091DA0039
:102110008E7F8093DA008091D90080FF9DC080E19E
:1021200089BD82E189BD09B400FEFDCF81E08093C5
:10213000320680912506811109C00E944D040E943B
:1021400018058091E20084608093E2008091E100B4
:1021500080FF17C08091E20080FF13C08091E200F1
:102160008E7F8093E2008091E20080618093E200A4
:102170008091D80080628093D80019BC85E080935C
:1021800032068091E10084FF2BC08091E20084FF41
:1021900027C080E189BD82E189BD89B5982F917002
:1021A00080FFFBCF8091D8008F7D8093D8008091F5
:1021B000E1008F7E8093E1008091E2008F7E80932A
:1021C000E2008091E20081608093E200809133061A
:1021D000882309F447C084E0809332068091320658
:1021E0008091E10083FF27C08091E20083FF23C03C
:1021F0008091E100877F8093E10082E08093320646
:10220000109233068091E1008E7F8093E1008091EF
:10221000E2008E7F8093E2008091E20080618093F3
:10222000E20042E060E080E00E94E6048091F0007D
:1022300088608093F000FF91EF91BF91AF919F91E3
:102240008F917F916F915F914F913F912F910F905F
:102250000FBE0F901F90189519BC10923206109265
:10226000250674CF8091E30087FD93E090933206BA
:10227000B5CF78941F921FB61F9211248F939F930E
:10228000AF93BF9380911E0690911F06A0912006E8
:10229000B09121060196A11DB11D80931E06909359
:1022A0001F06A0932006B0932106BF91AF919F9186
:1022B0008F911F901FBE1F9018959C014FB7F894E7
:1022C00080911E0690911F06A0912006B0912106D4
:1022D0004FBF821B930B08952FB7F89480911E0671
:1022E00090911F06A0912006B09121062FBF08955E
:1022F0000F931F93CF93DF93C62FD42F022FFC0190
:1023000082818823A1F060933E060E946C11909315
:102310003D0680933C06C77081E001C0880FCA95D6
:10232000EAF7DF91CF911F910F910C94290A8091C8
:102330003E06681335C080913C0690913D060E9490
:102340005D11883C910560F510E21D0FCD17B9F0C5
:1023500080E28C0F883040F4C77081E001C0880FA4
:10236000CA95EAF70E94220A183048F481E09D2FAE
:10237000977001C0880F9A95EAF70E94290A802F6A
:102380000E947E0F183098F4D77081E001C0880F4A
:10239000DA95EAF7DF91CF911F910F910C94220A01
:1023A000C77081E001C0880FCA95EAF7F3CFDF91CB
:1023B000CF911F910F9108954F925F926F927F92EC
:1023C0008F929F92AF92BF92CF92DF92EF92FF9245
:1023D0000F931F93CF93DF9300D000D00F92CDB710
:1023E000DEB77C01FC0183819481892B39F0108157
:1023F000D180812F8D218F3F09F01EC50F900F9046
:102400000F900F900F90DF91CF911F910F91FF9040
:10241000EF90DF90CF90BF90AF909F908F907F9084
:102420006F905F904F9008950E94B008082F682F1A
:1024300089819A810E944B09E12FF0E025E0D29E2C
:10244000E00DF11D11243EE1039FE00DF11D11246B
:10245000EE0FFF1FE15AFE4F05911491063A8DE5EC
:10246000180709F0AFC0F7018281882309F4C0C0C2
:102470006CE5C62E61E0D62E7AE0472EF601249157
:10248000222309F4B5C0213009F048C03196849167
:10249000813041F4F2E0CF0ED11CF60184910E940C
:1024A0007E0F09C0823059F4F2E0CF0ED11CF60144
:1024B00084910E94D80E2FEFC21AD20ADFCF833048
:1024C00041F4F2E0CF0ED11CF60184910E94330A50
:1024D000F2CF843009F074C0F2E0CF0ED11CF601C7
:1024E000249190E080E0F60131962053330B2A309E
:1024F000310548F00197F8F2EFE9FFE03197F1F785
:1025000000C00000F7CF489EA001499E500D112445
:10251000C901840F951F24916F01E5CFE22FF0E0F0
:10252000E452FF4F5490822F86958695869590E0D1
:10253000FC01E453FF4F64902770712C022E02C0FF
:10254000759467940A94E2F731E063227724FC01E2
:10255000E454FF4F8490912C022E02C095948794EE
:102560000A94E2F7E1E08E229924FC01E455FF4F42
:10257000A490B12C02C0B594A7942A95E2F7F1E09B
:10258000AF22BB246114710419F081EE0E94D80EB1
:102590008114910419F086EE0E94D80E852D0E94B8
:1025A0007E0F892819F086EE0E94330A672819F0F9
:1025B00081EE0E94330AAB2809F47DCF8CE26FCF05
:1025C0006F0179CF043F3CE5130709F49DC008F083
:1025D0005CC0093D9CE5190709F492C00A3DECE591
:1025E0001E0709F49DC0083DFCE51F0709F484C0DF
:1025F000F7018281882309F430C410923E0604302A
:10260000FDE51F0708F08FC00B3F2CE5120730F4E3
:10261000C80182509C45449708F08AC00E94860FEA
:102620009093D2018093D10100318CE5180709F411
:1026300050C108F0CCC00830ECE51E0709F437C1E2
:1026400008F09EC004302CE5120709F422C108F0FE
:1026500084C002308CE5180709F415C18091D101BE
:10266000826003301C4509F411C16091D1011091C1
:10267000D20184E090E00E946A20612F82E290E023
:102680000E946A200E94820A11C0063F2CE51207B0
:1026900009F442C0E8F127E245EE66EE073F8CE51B
:1026A000180709F0A5CFC7010E9478118091C101D8
:1026B000877009F4A3CEF7018281882309F49ECEA6
:1026C0008091D20182FD9ACE82E00F900F900F9000
:1026D0000F900F90DF91CF911F910F91FF90EF908E
:1026E000DF90CF90BF90AF909F908F907F906F9032
:1026F0005F904F900C94DB0926E241EE61EED3CF60
:1027000027E245EE65EECFCF26E241EE60EECBCF7D
:1027100027E245EE64EEC7CF26E241EE62EEC3CF7C
:1027200028E241E0EFCF02363DE5130709F476CF0A
:102730000631ECE51E0709F09BC38091C4018A7A3B
:1027400091E009F490E0909374018111E7C089E26F
:102750000E948D080E945308A9CF8091D101806109
:102760000630ECE51E0709F491C08091D101886024
:1027700007301C4508F48AC08091D101806286C070
:102780008091D1018D7F0C302CE5120709F47EC0B9
:1027900058F40A308CE5180709F493C008F48BC08C
:1027A0008091D1018E7F72C08091D101877F0E30E0
:1027B000ECE51E0709F46AC08091D1018B7F0F30D0
:1027C0001C4508F463C08091D1018F7E5FC00D3F2E
:1027D0002CE5120709F479C068F504318CE5180777
:1027E00009F48BC080F40231ECE51E0709F475C0D2
:1027F0008091D1018F7B03311C4508F447C0809143
:10280000D101837F43C00B3F2CE5120709F445C07B
:1028100008F049C005311C4509F027CF8091D1014E
:1028200082FB992790F921E0922790FB82F990FB97
:1028300083F92CC001309DE5190709F454C088F4D0
:102840008091D20183600F3FFCE51F0749F1809121
:10285000D2018D7F01151D4518F18091D2018C7F29
:102860001FC003303DE5130709F456C008F44EC0FD
:1028700002361D4509F0F9CE9091D101892F8F7E46
:1028800094FF806103C08091D10181608093D10168
:10289000ECCE8091D1018460F9CF8091D20181602A
:1028A0008093D201E2CE8091D2018260F9CF8091F3
:1028B000D1018064EBCF0E94820A8091D1018068AF
:1028C000E5CF8091D1018C60E1CF8091D2018E7FE4
:1028D000E7CF8091D1018F7DD9CF0E94820A80916C
:1028E000D1018F77D3CF8091D201982F909591709D
:1028F0008E7F892B90FB81F9D3CF0E94820A909121
:10290000D101892F97FB87F98058C0CF61E08EE015
:1029100090E00E946A20A9CE60E0F9CF85E318CF4D
:1029200085E3A3C20E94820AFFEF24E33CE0F1505A
:1029300020403040E1F700C000000E94DC0581E04B
:10294000B7C280E0B5C2812F902F0E942209D82EF5
:10295000C2C2212F2F70C22E107F19F0C29420EF17
:10296000C222DD20B9F0CC2069F080E2800F8830EF
:1029700010F0811009C08091C401C82AC092C4011E
:102980000E945308802F4BC08091C301C82AC09277
:10299000C301F6CF802F0E94330ACC2009F441C036
:1029A000005E083010F0811004C08C2D0E944C088D
:1029B00006C0C0948091C301C822C092C3010E9486
:1029C00053082FC0312F3F70C32E107F103219F0E3
:1029D000C29490EFC922882089F081E0881609F41A
:1029E00088C0DD2009F492C0992009F488C0F7015D
:1029F000858180FFC7CF8F70858381C02091D201F0
:102A000022FF54C0DD2009F44AC0CC2039F0809167
:102A1000C401C82AC092C4010E94530880E00E94E9
:102A2000D80EEA2DE850FF0B349710F40E942506CB
:102A3000BB20A9F08091C10180FD11C0F701128275
:102A40008595859585950E94F709C7010E94DC113F
:102A50008091C1018595859585950E94B80985E08D
:102A6000F701DE01119601900D928A95E1F78981B7
:102A70009A810E9422099A81E981F0E025E0929FE3
:102A8000E00DF11D11243EE1839FE00DF11D1124A5
:102A9000EE0FFF1FE15AFE4F85919491AFCC80E07D
:102AA0000E94330ACC2009F4BCCF7FCFDD20A1F0F7
:102AB0009091C5018C2D892B911003C00E94290A89
:102AC000B0CFE1E09E12FACF22FDABCF981709F408
:102AD000A8CF8093C501A5CF911006C00E944608DB
:102AE0008C2D0E94220A9DCFF1E09F1609F499CF08
:102AF000F5CFDD2031F025E0291508F492CF8C2D9B
:102B0000DDCF34E0391508F48CCFEACF992041F3BA
:102B1000F9E38F128AC12FEF37EE83E02150304066
:102B20008040E1F700C0000080C1812F8695869526
:102B3000837061F0813009F074CFC8019370D110B7
:102B400002C090E080E00E94F9056BCFC80193704D
:102B5000D11002C090E080E00E940F0662CF812F6A
:102B6000837009F066C0D1105CCF802F8295869566
:102B70008770880F880F602F6F70462E512C712C34
:102B8000612C082E04C0440C551C661C771C0A944A
:102B9000D2F740E050E0BA0104FF0FC04FE050E030
:102BA00060E070E004C0440F551F661F771F8A95D0
:102BB000D2F74095509560957095812F86958695B2
:102BC0008370823019F1D8F40091C6011091C701C9
:102BD0002091C8013091C901813069F044295529FB
:102BE00066297729CB01BA016023712382239323BD
:102BF0000E94180A16CF402A512A622A732ACB0152
:102C0000BA016429752986299729F2CF44295529C3
:102C1000662977290091C6011091C7012091C8014A
:102C20003091C901CB01BA01602771278227932710
:102C3000DFCF8695DD2011F0812F8170882309F484
:102C4000F0CE802F829586958770880F880F602F31
:102C50006F70462E512C712C612C082E04C0440C30
:102C6000551C661C771C0A94D2F740E050E0BA016C
:102C700004FF0FC04FE050E060E070E004C0440F7C
:102C8000551F661F771F8A95D2F74095509560951E
:102C90007095812F869586958370823019F1D8F4CE
:102CA0000091CD011091CE012091CF013091D00142
:102CB000813069F04429552966297729CB01BA0169
:102CC00060237123822393230E94AE09AACE402A57
:102CD000512A622A732ACB01BA01642975298629EF
:102CE0009729F2CF44295529662977290091CD01EA
:102CF0001091CE012091CF013091D001CB01BA01CA
:102D00006027712782279327DFCF1F70DD2029F0EE
:102D1000812F0E94F709802FD1CE802F0E94220A96
:102D2000812F0E94B8097DCE802F92EF891609F479
:102D30003FC0981570F0E0EF8E16D1F0F1EF8F16CE
:102D400091F0DD2009F46CC091101CCE812F8F71A1
:102D500033C023EF821699F134EF8312F2CF8091C2
:102D6000D20182FF3FC0812F8F71DD20D1F224C0BC
:102D7000DD20C9F084E0891508F453CE1F7161E0AD
:102D800070E080E090E004C0660F771F881F991FF5
:102D90001A95D2F70091CD011091CE012091CF016B
:102DA0003091D001ADCF95E0991508F43ACEE6CF39
:102DB000812F8F71D110B5CF0E94F70932CE60E01C
:102DC00070E0CB01DD2009F47FCF1F7161E070E07E
:102DD00080E090E004C0660F771F881F991F1A9546
:102DE000D2F772CFDD2089F01F71812F0E94F70981
:102DF0008091D20182FD07C0E8E01E9FC00111242E
:102E000083608093C101812FD7CF81E00E94DB09CD
:102E1000F1E0F91508F005CE82E00E94DB0901CE51
:102E2000992039F0893309F476CE802F0E94330A35
:102E3000F8CD812F8F7175CF85E0DE01119601905D
:102E40000D928A95E1F7F701228189819A812111FA
:102E5000EBCA0E942209082FEFCA06311C4551F522
:102E60008091740181115CCD89E20E94800872CC4E
:102E70000B352DE5120709F462CD58F401158CE5E8
:102E8000180709F44FCD0F3D1C45A1F40E94940F83
:102E90000DCC0C35EDE51E0709F453CD0D351D4560
:102EA00049F48091D20182FB882780F991E089273B
:102EB0000E94FF0FF701828110810181882309F4AC
:102EC00042CD812F902F0E94B008D82E682F812FDD
:102ED000902F0E944B09E12FF0E025E0029FE00DCA
:102EE000F11D11243EE1D39EE00DF11D1124EE0FE2
:102EF000FF1FE15AFE4F859194910E94C9068C01F3
:102F0000882EF701D280958092945FE0952280917F
:102F1000C1018770C1F0BD2CDD20B1F0812F807F11
:102F2000803421F080E2800F883068F08091D201F7
:102F300082FD09C082E00E94DB098091C101877097
:102F4000BB24B3948111B12CA12EA2943FE0A32203
:102F5000FBE0FA1508F465CDEA2DF0E0E854FF4DEA
:102F60000C9440201F93CF93DF9380918E01807F3C
:102F7000A9F480918B01882389F08091C001D091C0
:102F80008F016091890170918A01A0918C01B091AB
:102F90008D01C62FC72316E0D81304C0DF91CF914F
:102FA0001F91089590E0109711F0CF3F19F401960A
:102FB0008770F2CF189F9001199F300D1124F901ED
:102FC000E057FE4F41814713F2CF40814613EFCFC8
:102FD00042814111ECCF438154814A1B5B0B483C39
:102FE000510528F780918E018F70806180938E014A
:102FF000F901EB56FE4F80818F708061808389E8F4
:1030000091E00E94DC11DF91CF911F910C94A608F2
:10301000AF92BF92CF92DF92EF92FF920F931F93E6
:10302000CF93DF93CDB7DEB761970FB6F894DEBFCD
:103030000FBECDBF8C0185E0F801DE011D96019029
:103040000D928A95E1F7F801E28089E8A82E81E0E7
:10305000B82E60918C0170918D016115710509F494
:1030600032C19091890140918A01892F84238F3F39
:1030700009F429C120813181C380D480F0908B0173
:10308000F601E61BF70BFF2009F4E8C080918E01E2
:10309000582F507FE83CF10508F0ABC0511177C0C4
:1030A000FE2C431321C092131FC0E1101DC08F706E
:1030B000806180938E01C5010E94DC1180918E0198
:1030C000F80185838F2D61960FB6F894DEBF0FBE91
:1030D000CDBFDF91CF911F910F91FF90EF90DF90C7
:1030E000CF90BF90AF900895CD2829F0822F8323F1
:1030F0008F3F09F003C180E0F82FF170DF2E80FFD1
:103100003CC08091C00140918F0156E0841315C0EE
:103110002D873E878D859E850E940709292F229540
:103120002F702230F0F0243018F59F70F1F0F80184
:103130009581907FD1F4D12C1EC090E0589FF00172
:10314000599FF00D1124E057FE4F6181361306C0E0
:103150006081261303C06281E6120FC0019687705A
:10316000D5CF9F7011F0882331F3805E883018F33B
:10317000C8010E94DC11FD2CA5CFEE2009F4A2CFDE
:1031800080918E01816080938E01F12C9BCF43133F
:1031900006C0921304C0F801EE2009F479C0C801FA
:1031A0000E947909882309F1EE20F9F080918E01BF
:1031B000803270F02091890130918A0138872F8305
:1031C0001986DB86CA868C87CE0107960E94DC11A1
:1031D00086E0F801A9E8B1E001900D928A95E1F747
:1031E0000E94B217FF24F3946DCFC8010E94DC1136
:1031F000F9CF51110AC089E891E00E94DC1186E004
:10320000F50111928A95E9F7C0CF43130FC09213CD
:103210000DC0E1100BC0F8018583C8010E94DC11CC
:1032200086E0F50111928A95E9F74CCFC8010E941A
:1032300079098823D1F2EE20C1F280918E0180328B
:1032400038F22091890130918A013A8329831B82C7
:10325000DD82CC828E83CE010196B8CFE83CF105A9
:10326000F8F6FE2CEE2009F243131FC092131DC086
:1032700080918E0180FD10C0982F907F69F0F80139
:103280008583903F31F0982F907F905F8F70892BCE
:103290008583C8010E94DC1186E0F801A9E8B1E04D
:1032A00001900D928A95E1F70DCFC8010E9479092E
:1032B00081118ECF80918E01816080938E01C80133
:1032C0000E94DC11FFCEEE2009F48FCFC8010E94CE
:1032D0007909F82E882309F488CF86E0F801A9E857
:1032E000B1E001900D928A95E1F78091890190916A
:1032F0008A010E9407090E94B217E4CE81E08E2560
:10330000FBCE1F93CF93DF93CDB7DEB767970FB692
:10331000F894DEBF0FBECDBF4B8B5C8B6D8B7E8B6D
:103320008F8B61111092C3011A8A198A85E0FE0100
:103330007396DE011D9601900D928A95E1F786E065
:10334000FE013D96DE01179601900D928A95E1F7F8
:10335000CE0107960E940818882389F016E0809114
:10336000C00190918F01891349C067960FB6F894F8
:10337000DEBF0FBECDBFDF91CF911F91089586E0D4
:10338000FE013796DE01119601900D928A95E1F7C4
:103390008A859B85892B11F38F81988589238F3F9F
:1033A000E9F220918F0130E0C901019687709927D9
:1033B0004091C0014817190671F40E94820A1092C8
:1033C0008F011092C00186E0E9E8F1E0DF011D9273
:1033D0008A95E9F7C3CF96E0929FD001939FB00DF5
:1033E0001124A057BE4FFE01319601900D929A957F
:1033F000E1F780938F010E94A608B0CF819FC001A2
:10340000112480579E4F0E940818882309F4ADCFDD
:103410008091C00190E00196877099278093C00148
:103420009ECF7F928F929F92AF92BF92CF92DF9268
:10343000EF92FF920F931F93CF93DF9300D000D0B2
:1034400000D0CDB7DEB78E010F5F1F4F86E0F801C9
:1034500011928A95E9F787E4C82E81E0D82EF12CE5
:10346000E12CAA24A394B12C22E5822E21E0922EF5
:10347000F60181916F018F3F09F442C0F894E82F63
:10348000E295EF70F0E021A18F70A50102C0440F1A
:10349000551F8A95E2F7CA01922F982B91A392A10A
:1034A0008095892382A3789400C0EDE4F1E0712C2B
:1034B00031E021912F3F09F46DC0A22FA295AF708A
:1034C000B0E090968C9190E02F7002C09595879512
:1034D0002A95E2F780FD5EC0832F782A330F8E167F
:1034E0009F0639F7F601319780818F3F11F00E94D6
:1034F0006F0650EA5A95F1F7F801EE0DFF1D708244
:103500008FEFE81AF80AE6E0EE16F10409F0B0CF02
:1035100046E050E0B80183ED91E00E944F20FF2487
:10352000F394009709F4F12C892BB1F186E0F801AE
:10353000A3EDB1E001900D928A95E1F781E08093CF
:10354000CC010E946C119093CB018093CA018091B1
:10355000CA019091CB010E945D11059708F18091FD
:10356000D3018093D9018091D4018093DA018091B5
:10357000D5018093DB018091D6018093DC0180919D
:10358000D7018093DD018091D8018093DE011092F4
:10359000CC0106C080E0A1CF8091CC018111D7CFB2
:1035A0008F2D26960FB6F894DEBF0FBECDBFDF91EC
:1035B000CF911F910F91FF90EF90DF90CF90BF9030
:1035C000AF909F908F907F9008951F921FB61F928B
:1035D00011248F939F93AF93BF9380911D06811108
:1035E00013C080911E0690911F06A0912006B091F5
:1035F00021064196A11DB11D80931E0690931F06C2
:10360000A0932006B0932106BF91AF919F918F9117
:103610001F901FBE1F901895CDB7DEB72D970FB620
:10362000F894DEBF0FBECDBF84B7877F84BF0FB6CF
:10363000F894A89580916000886180936000109252
:1036400060000FBE80E890E00FB6F89480936100B0
:10365000909361000FBE85B7806885BF85B780688D
:1036600085BF8DE696E090936B0180936A010E947E
:103670004D040E9418058091E20084608093E2006E
:103680007894809132068823A1F01091E9001F7090
:103690009091EC00892F817090FD80E8182B10929A
:1036A000E9008091E80083FD0E948D0A1F7010934D
:1036B000E90082E084BD93E095BD9AEF97BD8093C9
:1036C0006E0007E411E06DE4E62E61E0F62ED8010D
:1036D0008D918D018F3F11F00E946F06E016F1066B
:1036E000B1F70DE411E052E5E52E51E0F52EF801B9
:1036F00081918F018F3F11F00E946F06E016F10655
:10370000B1F786E0E9EDF1E0DF01282F1D922A955F
:10371000E9F7E3EDF1E0DF011D928A95E9F790E02A
:1037200080E00E946420893E9E4F11F00E94940F19
:1037300082E090E00E945C2080930A060E94860F3F
:103740009093D2018093D1010E94111AEFE3FCE91A
:103750003197F1F700C000000E94111A8091D90141
:1037600080FF08C06FEF7FEF90E080E00E9488202C
:103770000E94DC0583E090E00E945C20682F70E0EE
:1037800090E080E00E94180A83E08093070680E2C0
:1037900080933F060E94051F6DE070E08EEA91E085
:1037A0000E94050E892BE9F58091070663E070E021
:1037B00081FDAEC18BEA91E00E94050E892B89F54F
:1037C0006DE070E08BE991E00E94050E892B49F5D0
:1037D0000E94ED05605A75418F4F9F4F609311060F
:1037E000709312068093130690931406E2E4F6E0B9
:1037F00080E092E0DF019C011D9221503040E1F712
:10380000F0934908E09348088FEF9FEF90934106AB
:103810008093400681E080931606809315061092EF
:10382000080684988C9A85988D9A8FB182958170BC
:103830007D9971C190E0892B8093E10180E091E056
:1038400090931A068093190689ED91E036E0380FBF
:103850003B878091320600E112E1853009F495C181
:103860000E94111AE82E81110E94ED05A9EDB1E028
:10387000EBE0F6E010E000E0302F8D919191981789
:1038800009F492C1292F282790E0FF24F394422FB6
:103890004F2109F484C199833A838F2191E009F47F
:1038A00090E09B830E946C118160782F9D838C83B4
:1038B00049815A816B818D810E948119F801E55FF0
:1038C000F94F8081F826F082E091E101EE0FEE0FD2
:1038D000E093E1018FB184FB662460F87D997BC1A0
:1038E00080E08629E82BE093E101EF70F0E0EE5AEA
:1038F000FE4F80819091E001890F8093E001F12CCF
:10390000843064F08091DF018F5F8093DF016AE093
:1039100070E08AEA0E94670FFF24F3948091E0012F
:103920008D3F64F48091DF0181508093DF016AE074
:1039300070E089EA0E94670FFF24F3948091E00110
:10394000082E000C990B64E070E00E942C208093FC
:10395000E001F1100E94ED0580911606882309F41C
:10396000C6C082E496E0909349088093480840914D
:10397000E3055091E4056091E5057091E6052FB7E8
:10398000F89480911E0690911F06A0912006B09198
:1039900021062FBF841B950BA60BB70B8D329140D0
:1039A000A105B10508F452C00E94ED056093E3053E
:1039B0007093E4058093E5059093E60580910D01F1
:1039C00090910C01E92FF0E020E2829FA0011124E8
:1039D000DA01AD51BE4FAE0FBF1F3C91632F70E0B7
:1039E0002091E201332309F4F9C0313009F4FEC01B
:1039F0004D515E4FE40FF51F6F5F7F4F617077276A
:103A000060832091E201213009F400C1222309F4EE
:103A1000F3C0223009F403C1233009F406C103EED8
:103A200011E0A12C6801B12CD6018D916D01882384
:103A300009F400C1813009F403C1B394B0E2BB12B0
:103A4000F3CFA394005E1F4FAB12ECCF80913F06E3
:103A5000E6E08E9FC00111248115F2E09F0714F06B
:103A600090E080E08E5B994F9093490880934808DE
:103A700081ED91E00E94F70D8AEC91E00E94F70D34
:103A800084EC91E00E94F70D0E94250680FDDAC0CB
:103A90008BEB91E00E94F70D80911606882371F060
:103AA00020914006309141062115310539F0809171
:103AB000080661E070E0882309F4C8C0809115060B
:103AC0008823A9F00E94ED050091110610911206BD
:103AD0002091130630911406601B710B820B930B1F
:103AE0006F3F7F4F8F4F9F4710F40E94350EE110BC
:103AF00001C0F1100E94500E0E9425069091090607
:103B0000891709F4A6CE0E94250680930906A1CE46
:103B100088EA91E051CE92E08ECE809132068430D8
:103B200031F10E94350E10921D0688E190E0A0E46C
:103B30000FB6F894A895809360000FBEA093600024
:103B400083B7817F846083BF83B7816083BF7894AC
:103B5000889583B78E7F83BF0FB6F894A895809120
:103B60006000886180936000109260000FBE8091B9
:103B70003106882351F00E94111AE9EDF1E081919C
:103B800081112DC1BB85BE13FACF809132068530DD
:103B900009F4C3CF0E94820A0E94250661CE9F5F6E
:103BA000FF0C953009F073CE0F5F1F4F06301105E3
:103BB00009F062CE8FEF8E838F8318860E946C117E
:103BC0008160782F9A8789874E815F8168858A8591
:103BD0000E94811979CE82E090E083CE215024307A
:103BE00018F42093E20104CF23E0FBCF2F5F2430B1
:103BF000C0F31092E201FCCE9150903218F49093F1
:103C00000C010DCF8FE180930C0109CF8F5F8032C3
:103C100018F480930D0103CF10920D0100CF9F5F28
:103C2000903268F310920C01FACE8150803288F302
:103C30008FE1EFCF41E06B2D8A2D0E943106FDCE42
:103C400040E0F9CF80EC91E025CF8F5F082F10E0A6
:103C50002B01082E02C0440C551C0A94E2F7A9015E
:103C600044215521452B89F39091070690FD44C0CE
:103C70008295880F8076809310019801369527955C
:103C80003695279520931301815E80931101109240
:103C9000140124E630E047E050E06EE071E088E790
:103CA0000E94B41F892B09F009CFA80195E0440FA9
:103CB000551F9A95E1F78091070680FD2BC04E5B5A
:103CC000594F04E610E020E230E060E488E70E940B
:103CD000DB1F892B09F0F2CE0E94500EC2018095A5
:103CE00090954090400650904106482259225092AB
:103CF000410640924006E2CE880F880F880F8093DD
:103D0000100110921301895F8093110183E0809369
:103D10001401BFCFE7EEF5E080E2DF011D928A9546
:103D2000E9F7E6E6F1E0FD87EC8702E611E0992489
:103D30009394AC85BD852D91BD87AC87F80121900A
:103D40008F01240E352E311CC1018E5B994F1C0151
:103D5000E22FF0E0E951FA4F30E020E087E0A82EB2
:103D6000A21AB92C022E01C0BB0C0A94EAF7610119
:103D700090E0D6018D916D018B216A2D691B6770D2
:103D8000862E062E000C770BB82F01C0BB0F8A942D
:103D9000EAF78B2E7195619571096770772701C0DD
:103DA00086956A95EAF7882A8081882A80829F5FB3
:103DB0009830F9F62F5F3F4F31962830310571F674
:103DC000EAE6F1E02C853D85E217F30709F0B1CF73
:103DD00004E610E020E230E047EE55E076CF09BD82
:103DE00019BD09B400FEFDCF8091D8008F7D80936E
:103DF000D8008091E00082608093E0008091E00034
:103E000081FDFCCF0E94820AC0CE1092B9008CE0E6
:103E10008093B80008959F92AF92BF92CF92DF92A5
:103E2000EF92FF920F931F93CF93DF93B82EEB0186
:103E30000E946C116C01EE24E394F12CC431D10585
:103E400060F025E0E22EF12CCF3FDC0731F0CE010F
:103E500064E170E00E940C207B0184EAA82E94E8C3
:103E6000992E1092BC00A092BC000E946C118C0193
:103E70008091BC0087FF0DC08091B900887F883099
:103E800039F18091B900887F803111F10FEF1FEF78
:103E900009C00E946C11801B910B8E159F0540F389
:103EA0000EEF1FEFCF3FDC07E1F2C6010E945D116C
:103EB0008C179D07B0F2C801DF91CF911F910F9130
:103EC000FF90EF90DF90CF90BF90AF909F900895BC
:103ED000B092BB009092BC000E946C118C0180914A
:103EE000BC0087FF0AC08091B900887F883111F03B
:103EF000803461F610E000E0DECF0E946C11801B80
:103F0000910B8E159F0558F3CBCF0F931F93CF9333
:103F1000DF93EB018093BB0084E88093BC000E9498
:103F20006C118C018091BC0087FF11C02091B900F9
:103F3000287F81E090E0283211F490E080E09195B4
:103F400081959109DF91CF911F910F910895CF3FF6
:103F5000DC0741F30E946C11801B910B8C179D07AD
:103F600008F38EEF9FEFEECFCF92DF92EF92FF92AA
:103F70000F931F93CF93DF936B018A017901B901EE
:103F80000E940B1FE6010C0D1D1DC017D10761F427
:103F900024E92093BC00DF91CF911F910F91FF90F6
:103FA000EF90DF90CF90089597FDF2CFB701899100
:103FB0000E94851FEACFCF92DF92EF92FF920F937C
:103FC0001F93CF93DF93C62F6A017901B8010E9436
:103FD0000B1F97FD0CC0B8018C2F0E94851FE601B6
:103FE000EC0CFD1CCE15DF0511F097FF0CC024E989
:103FF0002093BC00DF91CF911F910F91FF90EF9024
:10400000DF90CF900895B80189910E94851FEACF73
:1040100084E98093BC000895AA1BBB1B51E107C033
:10402000AA1FBB1FA617B70710F0A61BB70B881F48
:10403000991F5A95A9F780959095BC01CD010895D7
:10404000991B79E004C0991F961708F0961B881FEA
:104050007A95C9F78095089597FB072E16F400947A
:1040600007D077FD09D00E940C2007FC05D03EF454
:10407000909581959F4F0895709561957F4F089514
:10408000EE0FFF1F0590F491E02D0994FB01DC0178
:1040900002C005900D9241505040D8F70895FB01A1
:1040A000DC0104C08D910190801921F441505040F1
:1040B000C8F7881B990B0895F999FECF92BD81BD71
:1040C000F89A992780B50895A8E1B0E042E050E061
:1040D0000C949020262FF999FECF92BD81BDF89ABD
:1040E000019700B4021639F01FBA20BD0FB6F8943C
:1040F000FA9AF99A0FBE08950396272F0E946B2013
:104100000E946A20252F0E946B20242F0C946B2084
:104110000196272F0E946B200C946A20DC01CB01B2
:10412000FC01F999FECF06C0F2BDE1BDF89A3196C7
:1041300000B40D9241505040B8F70895F894FFCF65
:104140008B098B0994099409960994099409940997
:104150008B098B099B09940994099B09710B990B95
:10416000310D990B310DCC0BED0B310DEA0CF70C29
:10417000A914A914E214E2149515111511151115BD
:08418000AF1585169416941684
:10418800D905AB0ED805A70EA30ED7050F0F002132
:10419800007F22000301818283E200E900EA00B582
:1041A80000B600B700CD008301CC008A01920194CB
:1041B800012102230224022502260227022A02B331
:1041C80000B4006F00700034C6973566F6F73133D7
:1041D800323600FF0100010000FFFF00000100016E
:0A41E800FF0000081018181008006E
:00000001FF
